{
  "_format": "hh-sol-artifact-1",
  "contractName": "Ticketify",
  "sourceName": "contracts/Ticketify.sol",
  "abi": [
    {
      "inputs": [
        {
          "internalType": "address",
          "name": "_pyusdAddress",
          "type": "address"
        }
      ],
      "stateMutability": "nonpayable",
      "type": "constructor"
    },
    {
      "inputs": [
        {
          "internalType": "address",
          "name": "owner",
          "type": "address"
        }
      ],
      "name": "OwnableInvalidOwner",
      "type": "error"
    },
    {
      "inputs": [
        {
          "internalType": "address",
          "name": "account",
          "type": "address"
        }
      ],
      "name": "OwnableUnauthorizedAccount",
      "type": "error"
    },
    {
      "inputs": [],
      "name": "ReentrancyGuardReentrantCall",
      "type": "error"
    },
    {
      "anonymous": false,
      "inputs": [
        {
          "indexed": true,
          "internalType": "uint256",
          "name": "eventId",
          "type": "uint256"
        },
        {
          "indexed": true,
          "internalType": "address",
          "name": "organizer",
          "type": "address"
        },
        {
          "indexed": false,
          "internalType": "uint256",
          "name": "price",
          "type": "uint256"
        },
        {
          "indexed": false,
          "internalType": "uint256",
          "name": "maxAttendees",
          "type": "uint256"
        },
        {
          "indexed": false,
          "internalType": "uint256",
          "name": "eventTime",
          "type": "uint256"
        }
      ],
      "name": "EventCreated",
      "type": "event"
    },
    {
      "anonymous": false,
      "inputs": [
        {
          "indexed": true,
          "internalType": "address",
          "name": "previousOwner",
          "type": "address"
        },
        {
          "indexed": true,
          "internalType": "address",
          "name": "newOwner",
          "type": "address"
        }
      ],
      "name": "OwnershipTransferred",
      "type": "event"
    },
    {
      "anonymous": false,
      "inputs": [
        {
          "indexed": true,
          "internalType": "address",
          "name": "owner",
          "type": "address"
        },
        {
          "indexed": false,
          "internalType": "uint256",
          "name": "amount",
          "type": "uint256"
        }
      ],
      "name": "PlatformFeesWithdrawn",
      "type": "event"
    },
    {
      "anonymous": false,
      "inputs": [
        {
          "indexed": true,
          "internalType": "uint256",
          "name": "eventId",
          "type": "uint256"
        },
        {
          "indexed": true,
          "internalType": "address",
          "name": "organizer",
          "type": "address"
        },
        {
          "indexed": false,
          "internalType": "uint256",
          "name": "amount",
          "type": "uint256"
        }
      ],
      "name": "RevenueWithdrawn",
      "type": "event"
    },
    {
      "anonymous": false,
      "inputs": [
        {
          "indexed": true,
          "internalType": "uint256",
          "name": "eventId",
          "type": "uint256"
        },
        {
          "indexed": true,
          "internalType": "address",
          "name": "buyer",
          "type": "address"
        },
        {
          "indexed": false,
          "internalType": "uint256",
          "name": "price",
          "type": "uint256"
        },
        {
          "indexed": false,
          "internalType": "uint256",
          "name": "purchaseTime",
          "type": "uint256"
        }
      ],
      "name": "TicketPurchased",
      "type": "event"
    },
    {
      "inputs": [],
      "name": "BASIS_POINTS_DIVISOR",
      "outputs": [
        {
          "internalType": "uint256",
          "name": "",
          "type": "uint256"
        }
      ],
      "stateMutability": "view",
      "type": "function"
    },
    {
      "inputs": [],
      "name": "PLATFORM_FEE_BASIS_POINTS",
      "outputs": [
        {
          "internalType": "uint256",
          "name": "",
          "type": "uint256"
        }
      ],
      "stateMutability": "view",
      "type": "function"
    },
    {
      "inputs": [
        {
          "internalType": "uint256",
          "name": "price",
          "type": "uint256"
        },
        {
          "internalType": "uint256",
          "name": "maxAttendees",
          "type": "uint256"
        },
        {
          "internalType": "uint256",
          "name": "eventTime",
          "type": "uint256"
        }
      ],
      "name": "createEvent",
      "outputs": [
        {
          "internalType": "uint256",
          "name": "",
          "type": "uint256"
        }
      ],
      "stateMutability": "nonpayable",
      "type": "function"
    },
    {
      "inputs": [
        {
          "internalType": "uint256",
          "name": "",
          "type": "uint256"
        },
        {
          "internalType": "uint256",
          "name": "",
          "type": "uint256"
        }
      ],
      "name": "eventTickets",
      "outputs": [
        {
          "internalType": "uint256",
          "name": "eventId",
          "type": "uint256"
        },
        {
          "internalType": "address",
          "name": "buyer",
          "type": "address"
        },
        {
          "internalType": "uint256",
          "name": "purchaseTime",
          "type": "uint256"
        }
      ],
      "stateMutability": "view",
      "type": "function"
    },
    {
      "inputs": [
        {
          "internalType": "uint256",
          "name": "",
          "type": "uint256"
        }
      ],
      "name": "events",
      "outputs": [
        {
          "internalType": "uint256",
          "name": "id",
          "type": "uint256"
        },
        {
          "internalType": "address",
          "name": "organizer",
          "type": "address"
        },
        {
          "internalType": "uint256",
          "name": "price",
          "type": "uint256"
        },
        {
          "internalType": "uint256",
          "name": "maxAttendees",
          "type": "uint256"
        },
        {
          "internalType": "uint256",
          "name": "eventTime",
          "type": "uint256"
        },
        {
          "internalType": "bool",
          "name": "isActive",
          "type": "bool"
        },
        {
          "internalType": "uint256",
          "name": "ticketsSold",
          "type": "uint256"
        },
        {
          "internalType": "bool",
          "name": "hasWithdrawn",
          "type": "bool"
        }
      ],
      "stateMutability": "view",
      "type": "function"
    },
    {
      "inputs": [
        {
          "internalType": "uint256",
          "name": "eventId",
          "type": "uint256"
        }
      ],
      "name": "getEvent",
      "outputs": [
        {
          "components": [
            {
              "internalType": "uint256",
              "name": "id",
              "type": "uint256"
            },
            {
              "internalType": "address",
              "name": "organizer",
              "type": "address"
            },
            {
              "internalType": "uint256",
              "name": "price",
              "type": "uint256"
            },
            {
              "internalType": "uint256",
              "name": "maxAttendees",
              "type": "uint256"
            },
            {
              "internalType": "uint256",
              "name": "eventTime",
              "type": "uint256"
            },
            {
              "internalType": "bool",
              "name": "isActive",
              "type": "bool"
            },
            {
              "internalType": "uint256",
              "name": "ticketsSold",
              "type": "uint256"
            },
            {
              "internalType": "bool",
              "name": "hasWithdrawn",
              "type": "bool"
            }
          ],
          "internalType": "struct Ticketify.Event",
          "name": "",
          "type": "tuple"
        }
      ],
      "stateMutability": "view",
      "type": "function"
    },
    {
      "inputs": [],
      "name": "getEventCounter",
      "outputs": [
        {
          "internalType": "uint256",
          "name": "",
          "type": "uint256"
        }
      ],
      "stateMutability": "view",
      "type": "function"
    },
    {
      "inputs": [
        {
          "internalType": "uint256",
          "name": "eventId",
          "type": "uint256"
        }
      ],
      "name": "getEventRevenue",
      "outputs": [
        {
          "internalType": "uint256",
          "name": "",
          "type": "uint256"
        }
      ],
      "stateMutability": "view",
      "type": "function"
    },
    {
      "inputs": [
        {
          "internalType": "uint256",
          "name": "eventId",
          "type": "uint256"
        }
      ],
      "name": "getEventTickets",
      "outputs": [
        {
          "components": [
            {
              "internalType": "uint256",
              "name": "eventId",
              "type": "uint256"
            },
            {
              "internalType": "address",
              "name": "buyer",
              "type": "address"
            },
            {
              "internalType": "uint256",
              "name": "purchaseTime",
              "type": "uint256"
            }
          ],
          "internalType": "struct Ticketify.Ticket[]",
          "name": "",
          "type": "tuple[]"
        }
      ],
      "stateMutability": "view",
      "type": "function"
    },
    {
      "inputs": [],
      "name": "getPlatformFees",
      "outputs": [
        {
          "internalType": "uint256",
          "name": "",
          "type": "uint256"
        }
      ],
      "stateMutability": "view",
      "type": "function"
    },
    {
      "inputs": [
        {
          "internalType": "uint256",
          "name": "eventId",
          "type": "uint256"
        }
      ],
      "name": "getTicketsSold",
      "outputs": [
        {
          "internalType": "uint256",
          "name": "",
          "type": "uint256"
        }
      ],
      "stateMutability": "view",
      "type": "function"
    },
    {
      "inputs": [
        {
          "internalType": "uint256",
          "name": "",
          "type": "uint256"
        },
        {
          "internalType": "address",
          "name": "",
          "type": "address"
        }
      ],
      "name": "hasPurchasedTicket",
      "outputs": [
        {
          "internalType": "bool",
          "name": "",
          "type": "bool"
        }
      ],
      "stateMutability": "view",
      "type": "function"
    },
    {
      "inputs": [
        {
          "internalType": "uint256",
          "name": "eventId",
          "type": "uint256"
        },
        {
          "internalType": "address",
          "name": "user",
          "type": "address"
        }
      ],
      "name": "hasUserPurchasedTicket",
      "outputs": [
        {
          "internalType": "bool",
          "name": "",
          "type": "bool"
        }
      ],
      "stateMutability": "view",
      "type": "function"
    },
    {
      "inputs": [],
      "name": "owner",
      "outputs": [
        {
          "internalType": "address",
          "name": "",
          "type": "address"
        }
      ],
      "stateMutability": "view",
      "type": "function"
    },
    {
      "inputs": [],
      "name": "platformFeesAccumulated",
      "outputs": [
        {
          "internalType": "uint256",
          "name": "",
          "type": "uint256"
        }
      ],
      "stateMutability": "view",
      "type": "function"
    },
    {
      "inputs": [
        {
          "internalType": "uint256",
          "name": "eventId",
          "type": "uint256"
        }
      ],
      "name": "purchaseTicket",
      "outputs": [],
      "stateMutability": "nonpayable",
      "type": "function"
    },
    {
      "inputs": [],
      "name": "pyusdToken",
      "outputs": [
        {
          "internalType": "contract IPYUSD",
          "name": "",
          "type": "address"
        }
      ],
      "stateMutability": "view",
      "type": "function"
    },
    {
      "inputs": [],
      "name": "renounceOwnership",
      "outputs": [],
      "stateMutability": "nonpayable",
      "type": "function"
    },
    {
      "inputs": [
        {
          "internalType": "address",
          "name": "newOwner",
          "type": "address"
        }
      ],
      "name": "transferOwnership",
      "outputs": [],
      "stateMutability": "nonpayable",
      "type": "function"
    },
    {
      "inputs": [],
      "name": "withdrawPlatformFees",
      "outputs": [],
      "stateMutability": "nonpayable",
      "type": "function"
    },
    {
      "inputs": [
        {
          "internalType": "uint256",
          "name": "eventId",
          "type": "uint256"
        }
      ],
      "name": "withdrawRevenue",
      "outputs": [],
      "stateMutability": "nonpayable",
      "type": "function"
    }
  ],
  "bytecode": "0x60a060405234801561001057600080fd5b5060405161157938038061157983398101604081905261002f91610120565b338061005657604051631e4fbdf760e01b8152600060048201526024015b60405180910390fd5b61005f816100d0565b50600180556001600160a01b0381166100ba5760405162461bcd60e51b815260206004820152601560248201527f496e76616c696420505955534420616464726573730000000000000000000000604482015260640161004d565b6001600160a01b03166080526000600255610150565b600080546001600160a01b038381166001600160a01b0319831681178455604051919092169283917f8be0079c531659141344cd1fd0a4f28419497f9722a3daafe3b4186f6b6457e09190a35050565b60006020828403121561013257600080fd5b81516001600160a01b038116811461014957600080fd5b9392505050565b6080516113f9610180600039600081816103910152818161060601528181610b2d0152610de001526113f96000f3fe608060405234801561001057600080fd5b50600436106101375760003560e01c80637712d7fe116100b8578063ca261ce11161007c578063ca261ce1146103c6578063d0b7830b146103e6578063d16172d4146103ee578063f2fde38b146103f6578063f6143d8514610409578063f641fe391461041c57600080fd5b80637712d7fe1461031e578063779cea77146103315780638da5cb5b14610367578063917630091461038c578063b948348c146103b357600080fd5b80634cbd6fc6116100ff5780634cbd6fc61461025c578063552372001461026f5780635889298f146102775780636d1884e01461029a578063715018a61461031657600080fd5b80630b7914301461013c5780630ceff204146101ea578063126082cf146101ff5780633c82a97814610216578063439fd35f1461021e575b600080fd5b61019e61014a3660046111ae565b60046020819052600091825260409091208054600182015460028301546003840154948401546005850154600686015460079096015494966001600160a01b03909416959294919260ff9182169290911688565b604080519889526001600160a01b0390971660208901529587019490945260608601929092526080850152151560a084015260c0830152151560e0820152610100015b60405180910390f35b6101fd6101f83660046111ae565b610425565b005b61020861271081565b6040519081526020016101e1565b600254610208565b61024c61022c3660046111e3565b600660209081526000928352604080842090915290825290205460ff1681565b60405190151581526020016101e1565b61020861026a3660046111ae565b6106d6565b600354610208565b6102086102853660046111ae565b60009081526004602052604090206006015490565b6102ad6102a83660046111ae565b6107b5565b6040516101e19190815181526020808301516001600160a01b03169082015260408083015190820152606080830151908201526080808301519082015260a08083015115159082015260c0808301519082015260e0918201511515918101919091526101000190565b6101fd61088c565b61024c61032c3660046111e3565b6108a0565b61034461033f36600461120f565b6108cd565b604080519384526001600160a01b039092166020840152908201526060016101e1565b6000546001600160a01b03165b6040516001600160a01b0390911681526020016101e1565b6103747f000000000000000000000000000000000000000000000000000000000000000081565b6101fd6103c13660046111ae565b610919565b6103d96103d43660046111ae565b610cd4565b6040516101e19190611231565b6101fd610d69565b61020860fa81565b6101fd610404366004611296565b610eb0565b6102086104173660046112b8565b610eeb565b61020860035481565b61042d611107565b600081815260046020526040902060018101546001600160a01b03166104915760405162461bcd60e51b8152602060048201526014602482015273115d995b9d08191bd95cc81b9bdd08195e1a5cdd60621b60448201526064015b60405180910390fd5b60018101546001600160a01b031633146104ed5760405162461bcd60e51b815260206004820152601b60248201527f4f6e6c79206f7267616e697a65722063616e20776974686472617700000000006044820152606401610488565b60008160060154116105335760405162461bcd60e51b815260206004820152600f60248201526e139bc81d1a58dad95d1cc81cdbdb19608a1b6044820152606401610488565b600781015460ff16156105885760405162461bcd60e51b815260206004820152601960248201527f526576656e756520616c72656164792077697468647261776e000000000000006044820152606401610488565b600061271060fa836002015461059e91906112fa565b6105a89190611311565b905060008183600201546105bc9190611333565b905060008360060154826105d091906112fa565b60078501805460ff1916600117905560405163a9059cbb60e01b8152336004820152602481018290529091506001600160a01b037f0000000000000000000000000000000000000000000000000000000000000000169063a9059cbb906044016020604051808303816000875af115801561064f573d6000803e3d6000fd5b505050506040513d601f19601f820116820180604052508101906106739190611346565b61068f5760405162461bcd60e51b815260040161048890611368565b604051818152339086907f841fbab03327efe47fb7d133055c9aa87df38ff76b5919d1c190e0067c5e34b39060200160405180910390a3505050506106d360018055565b50565b60008181526004602081815260408084208151610100810183528154815260018201546001600160a01b03169381019390935260028101549183019190915260038101546060830152918201546080820152600582015460ff908116151560a0830152600683015460c0830181905260079093015416151560e08201529082036107635750600092915050565b600061271060fa836040015161077991906112fa565b6107839190611311565b905060008183604001516107979190611333565b905060008360c00151826107ab91906112fa565b9695505050505050565b61080a6040518061010001604052806000815260200160006001600160a01b03168152602001600081526020016000815260200160008152602001600015158152602001600081526020016000151581525090565b506000908152600460208181526040928390208351610100810185528154815260018201546001600160a01b03169281019290925260028101549382019390935260038301546060820152908201546080820152600582015460ff908116151560a0830152600683015460c0830152600790920154909116151560e082015290565b610894611131565b61089e600061115e565b565b60008281526006602090815260408083206001600160a01b038516845290915290205460ff165b92915050565b600560205281600052604060002081815481106108e957600080fd5b60009182526020909120600390910201805460018201546002909201549093506001600160a01b03909116915083565b610921611107565b600081815260046020526040902060018101546001600160a01b03166109805760405162461bcd60e51b8152602060048201526014602482015273115d995b9d08191bd95cc81b9bdd08195e1a5cdd60621b6044820152606401610488565b600581015460ff166109ca5760405162461bcd60e51b81526020600482015260136024820152724576656e74206973206e6f742061637469766560681b6044820152606401610488565b80600401544210610a1d5760405162461bcd60e51b815260206004820152601960248201527f4576656e742068617320616c72656164792073746172746564000000000000006044820152606401610488565b8060030154816006015410610a685760405162461bcd60e51b8152602060048201526011602482015270115d995b9d081a5cc81cdbdb19081bdd5d607a1b6044820152606401610488565b600082815260066020908152604080832033845290915290205460ff1615610ae25760405162461bcd60e51b815260206004820152602760248201527f416c726561647920707572636861736564207469636b657420666f72207468696044820152661cc8195d995b9d60ca1b6064820152608401610488565b600061271060fa8360020154610af891906112fa565b610b029190611311565b60028301546040516323b872dd60e01b815233600482015230602482015260448101919091529091507f00000000000000000000000000000000000000000000000000000000000000006001600160a01b0316906323b872dd906064016020604051808303816000875af1158015610b7e573d6000803e3d6000fd5b505050506040513d601f19601f82011682018060405250810190610ba29190611346565b610bbe5760405162461bcd60e51b815260040161048890611368565b8060036000828254610bd09190611397565b909155505060408051606081018252848152336020808301918252428385019081526000888152600583529485208054600180820183559187529286208551600390940201928355925192820180546001600160a01b0319166001600160a01b039094169390931790925590516002909101556006840180549192610c54836113aa565b9091555050600084815260066020908152604080832033808552925291829020805460ff1916600117905560028501549151909186917fef266bb11bf4b58aa8562ab8c8746e3b84a521780a2c57ca09d87bae13f5eb0991610cc0914290918252602082015260400190565b60405180910390a35050506106d360018055565b606060056000838152602001908152602001600020805480602002602001604051908101604052809291908181526020016000905b82821015610d5e5760008481526020908190206040805160608101825260038602909201805483526001808201546001600160a01b031684860152600290910154918301919091529083529092019101610d09565b505050509050919050565b610d71611131565b610d79611107565b60035480610dbf5760405162461bcd60e51b81526020600482015260136024820152724e6f206665657320746f20776974686472617760681b6044820152606401610488565b600060035560405163a9059cbb60e01b8152336004820152602481018290527f00000000000000000000000000000000000000000000000000000000000000006001600160a01b03169063a9059cbb906044016020604051808303816000875af1158015610e31573d6000803e3d6000fd5b505050506040513d601f19601f82011682018060405250810190610e559190611346565b610e715760405162461bcd60e51b815260040161048890611368565b60405181815233907ffc7ad544ff6a06d6499925723d25b6fe70457a42939995b1d3d6f560fe3363339060200160405180910390a25061089e60018055565b610eb8611131565b6001600160a01b038116610ee257604051631e4fbdf760e01b815260006004820152602401610488565b6106d38161115e565b6000808411610f3c5760405162461bcd60e51b815260206004820152601c60248201527f5072696365206d7573742062652067726561746572207468616e2030000000006044820152606401610488565b60008311610f985760405162461bcd60e51b8152602060048201526024808201527f4d617820617474656e64656573206d75737420626520677265617465722074686044820152630616e20360e41b6064820152608401610488565b428211610fe75760405162461bcd60e51b815260206004820152601c60248201527f4576656e742074696d65206d75737420626520696e20667574757265000000006044820152606401610488565b600280549081906000610ff9836113aa565b909155505060408051610100810182528281523360208083018281528385018a815260608086018b8152608087018b8152600160a08901818152600060c08b0181815260e08c018281528e83526004808c52928e90209c518d559851938c0180546001600160a01b0319166001600160a01b0390951694909417909355955160028b0155925160038a01559051938801939093555160058701805460ff19908116921515929092179055915160068701559151600790950180549091169415159490941790935583518981529081018890529283018690529183917f3991cc35513c615ae8297cb2d1f0b84af02724235696162989d28d2aa9213cc7910160405180910390a3949350505050565b60026001540361112a57604051633ee5aeb560e01b815260040160405180910390fd5b6002600155565b6000546001600160a01b0316331461089e5760405163118cdaa760e01b8152336004820152602401610488565b600080546001600160a01b038381166001600160a01b0319831681178455604051919092169283917f8be0079c531659141344cd1fd0a4f28419497f9722a3daafe3b4186f6b6457e09190a35050565b6000602082840312156111c057600080fd5b5035919050565b80356001600160a01b03811681146111de57600080fd5b919050565b600080604083850312156111f657600080fd5b82359150611206602084016111c7565b90509250929050565b6000806040838503121561122257600080fd5b50508035926020909101359150565b602080825282518282018190526000918401906040840190835b8181101561128b578351805184526020808201516001600160a01b031681860152604091820151918501919091529093019260609092019160010161124b565b509095945050505050565b6000602082840312156112a857600080fd5b6112b1826111c7565b9392505050565b6000806000606084860312156112cd57600080fd5b505081359360208301359350604090920135919050565b634e487b7160e01b600052601160045260246000fd5b80820281158282048414176108c7576108c76112e4565b60008261132e57634e487b7160e01b600052601260045260246000fd5b500490565b818103818111156108c7576108c76112e4565b60006020828403121561135857600080fd5b815180151581146112b157600080fd5b60208082526015908201527414165554d1081d1c985b9cd9995c8819985a5b1959605a1b604082015260600190565b808201808211156108c7576108c76112e4565b6000600182016113bc576113bc6112e4565b506001019056fea2646970667358221220825af3d3d156fef0554e53b97d969616d6b0b227e94046129258c2ce0440016b64736f6c634300081c0033",
  "linkReferences": {},
  "deployedLinkReferences": {}
}